{
  "_format": "hh-sol-artifact-1",
  "contractName": "CrowdFunding",
  "sourceName": "contracts/CrowdFunding.sol",
  "abi": [
    {
      "inputs": [
        {
          "internalType": "uint256",
          "name": "",
          "type": "uint256"
        }
      ],
      "name": "campaigns",
      "outputs": [
        {
          "internalType": "address",
          "name": "owner",
          "type": "address"
        },
        {
          "internalType": "string",
          "name": "title",
          "type": "string"
        },
        {
          "internalType": "string",
          "name": "description",
          "type": "string"
        },
        {
          "internalType": "uint256",
          "name": "target",
          "type": "uint256"
        },
        {
          "internalType": "uint256",
          "name": "deadline",
          "type": "uint256"
        },
        {
          "internalType": "uint256",
          "name": "amountCollected",
          "type": "uint256"
        }
      ],
      "stateMutability": "view",
      "type": "function"
    },
    {
      "inputs": [
        {
          "internalType": "address",
          "name": "_owner",
          "type": "address"
        },
        {
          "internalType": "string",
          "name": "_title",
          "type": "string"
        },
        {
          "internalType": "string",
          "name": "_description",
          "type": "string"
        },
        {
          "internalType": "uint256",
          "name": "_target",
          "type": "uint256"
        },
        {
          "internalType": "uint256",
          "name": "_deadline",
          "type": "uint256"
        }
      ],
      "name": "createCampaign",
      "outputs": [
        {
          "internalType": "uint256",
          "name": "",
          "type": "uint256"
        }
      ],
      "stateMutability": "nonpayable",
      "type": "function"
    },
    {
      "inputs": [
        {
          "internalType": "uint256",
          "name": "_id",
          "type": "uint256"
        }
      ],
      "name": "donateToCampaign",
      "outputs": [],
      "stateMutability": "payable",
      "type": "function"
    },
    {
      "inputs": [],
      "name": "getCampaigns",
      "outputs": [
        {
          "components": [
            {
              "internalType": "address",
              "name": "owner",
              "type": "address"
            },
            {
              "internalType": "string",
              "name": "title",
              "type": "string"
            },
            {
              "internalType": "string",
              "name": "description",
              "type": "string"
            },
            {
              "internalType": "uint256",
              "name": "target",
              "type": "uint256"
            },
            {
              "internalType": "uint256",
              "name": "deadline",
              "type": "uint256"
            },
            {
              "internalType": "uint256",
              "name": "amountCollected",
              "type": "uint256"
            },
            {
              "internalType": "address[]",
              "name": "donators",
              "type": "address[]"
            },
            {
              "internalType": "uint256[]",
              "name": "donations",
              "type": "uint256[]"
            }
          ],
          "internalType": "struct CrowdFunding.Campaign[]",
          "name": "",
          "type": "tuple[]"
        }
      ],
      "stateMutability": "view",
      "type": "function"
    },
    {
      "inputs": [
        {
          "internalType": "uint256",
          "name": "_id",
          "type": "uint256"
        }
      ],
      "name": "getDonators",
      "outputs": [
        {
          "internalType": "address[]",
          "name": "",
          "type": "address[]"
        },
        {
          "internalType": "uint256[]",
          "name": "",
          "type": "uint256[]"
        }
      ],
      "stateMutability": "view",
      "type": "function"
    },
    {
      "inputs": [],
      "name": "numberOfCampaigns",
      "outputs": [
        {
          "internalType": "uint256",
          "name": "",
          "type": "uint256"
        }
      ],
      "stateMutability": "view",
      "type": "function"
    }
  ],
  "bytecode": "0x6080604052600060015534801561001557600080fd5b506115f1806100256000396000f3fe6080604052600436106100555760003560e01c8063075843c31461005a57806307ca140d146100975780630fa91fa9146100c2578063141961bc1461010057806342a4fda814610142578063a6b036331461015e575b600080fd5b34801561006657600080fd5b50610081600480360381019061007c9190610cbd565b610189565b60405161008e9190610d7f565b60405180910390f35b3480156100a357600080fd5b506100ac6102ab565b6040516100b99190610d7f565b60405180910390f35b3480156100ce57600080fd5b506100e960048036038101906100e49190610d9a565b6102b1565b6040516100f7929190610f43565b60405180910390f35b34801561010c57600080fd5b5061012760048036038101906101229190610d9a565b6103c1565b60405161013996959493929190611011565b60405180910390f35b61015c60048036038101906101579190610d9a565b61052d565b005b34801561016a57600080fd5b5061017361068d565b604051610180919061132f565b60405180910390f35b60008060008060015481526020019081526020016000209050428160040154106101e8576040517f08c379a00000000000000000000000000000000000000000000000000000000081526004016101df906113c3565b60405180910390fd5b868160000160006101000a81548173ffffffffffffffffffffffffffffffffffffffff021916908373ffffffffffffffffffffffffffffffffffffffff160217905550858160010190805190602001906102439291906109d1565b508481600201908051906020019061025c9291906109d1565b50838160030181905550828160040181905550600081600501819055506001600081548092919061028c90611412565b91905055506001805461029f919061145b565b91505095945050505050565b60015481565b6060806000808481526020019081526020016000206006016000808581526020019081526020016000206007018180548060200260200160405190810160405280929190818152602001828054801561035f57602002820191906000526020600020905b8160009054906101000a900473ffffffffffffffffffffffffffffffffffffffff1673ffffffffffffffffffffffffffffffffffffffff1681526020019060010190808311610315575b50505050509150808054806020026020016040519081016040528092919081815260200182805480156103b157602002820191906000526020600020905b81548152602001906001019080831161039d575b5050505050905091509150915091565b60006020528060005260406000206000915090508060000160009054906101000a900473ffffffffffffffffffffffffffffffffffffffff169080600101805461040a906114be565b80601f0160208091040260200160405190810160405280929190818152602001828054610436906114be565b80156104835780601f1061045857610100808354040283529160200191610483565b820191906000526020600020905b81548152906001019060200180831161046657829003601f168201915b505050505090806002018054610498906114be565b80601f01602080910402602001604051908101604052809291908181526020018280546104c4906114be565b80156105115780601f106104e657610100808354040283529160200191610511565b820191906000526020600020905b8154815290600101906020018083116104f457829003601f168201915b5050505050908060030154908060040154908060050154905086565b60003490506000806000848152602001908152602001600020905080600601339080600181540180825580915050600190039060005260206000200160009091909190916101000a81548173ffffffffffffffffffffffffffffffffffffffff021916908373ffffffffffffffffffffffffffffffffffffffff1602179055508060070182908060018154018082558091505060019003906000526020600020016000909190919091505560008160000160009054906101000a900473ffffffffffffffffffffffffffffffffffffffff1673ffffffffffffffffffffffffffffffffffffffff168360405161062290611521565b60006040518083038185875af1925050503d806000811461065f576040519150601f19603f3d011682016040523d82523d6000602084013e610664565b606091505b5050905080156106875782826005015461067e9190611536565b82600501819055505b50505050565b6060600060015467ffffffffffffffff8111156106ad576106ac610b5c565b5b6040519080825280602002602001820160405280156106e657816020015b6106d3610a57565b8152602001906001900390816106cb5790505b50905060005b6001548110156109c9576000806000838152602001908152602001600020905080604051806101000160405290816000820160009054906101000a900473ffffffffffffffffffffffffffffffffffffffff1673ffffffffffffffffffffffffffffffffffffffff1673ffffffffffffffffffffffffffffffffffffffff16815260200160018201805461077f906114be565b80601f01602080910402602001604051908101604052809291908181526020018280546107ab906114be565b80156107f85780601f106107cd576101008083540402835291602001916107f8565b820191906000526020600020905b8154815290600101906020018083116107db57829003601f168201915b50505050508152602001600282018054610811906114be565b80601f016020809104026020016040519081016040528092919081815260200182805461083d906114be565b801561088a5780601f1061085f5761010080835404028352916020019161088a565b820191906000526020600020905b81548152906001019060200180831161086d57829003601f168201915b505050505081526020016003820154815260200160048201548152602001600582015481526020016006820180548060200260200160405190810160405280929190818152602001828054801561093657602002820191906000526020600020905b8160009054906101000a900473ffffffffffffffffffffffffffffffffffffffff1673ffffffffffffffffffffffffffffffffffffffff16815260200190600101908083116108ec575b505050505081526020016007820180548060200260200160405190810160405280929190818152602001828054801561098e57602002820191906000526020600020905b81548152602001906001019080831161097a575b5050505050815250508383815181106109aa576109a961158c565b5b60200260200101819052505080806109c190611412565b9150506106ec565b508091505090565b8280546109dd906114be565b90600052602060002090601f0160209004810192826109ff5760008555610a46565b82601f10610a1857805160ff1916838001178555610a46565b82800160010185558215610a46579182015b82811115610a45578251825591602001919060010190610a2a565b5b509050610a539190610ab2565b5090565b604051806101000160405280600073ffffffffffffffffffffffffffffffffffffffff168152602001606081526020016060815260200160008152602001600081526020016000815260200160608152602001606081525090565b5b80821115610acb576000816000905550600101610ab3565b5090565b6000604051905090565b600080fd5b600080fd5b600073ffffffffffffffffffffffffffffffffffffffff82169050919050565b6000610b0e82610ae3565b9050919050565b610b1e81610b03565b8114610b2957600080fd5b50565b600081359050610b3b81610b15565b92915050565b600080fd5b600080fd5b6000601f19601f8301169050919050565b7f4e487b7100000000000000000000000000000000000000000000000000000000600052604160045260246000fd5b610b9482610b4b565b810181811067ffffffffffffffff82111715610bb357610bb2610b5c565b5b80604052505050565b6000610bc6610acf565b9050610bd28282610b8b565b919050565b600067ffffffffffffffff821115610bf257610bf1610b5c565b5b610bfb82610b4b565b9050602081019050919050565b82818337600083830152505050565b6000610c2a610c2584610bd7565b610bbc565b905082815260208101848484011115610c4657610c45610b46565b5b610c51848285610c08565b509392505050565b600082601f830112610c6e57610c6d610b41565b5b8135610c7e848260208601610c17565b91505092915050565b6000819050919050565b610c9a81610c87565b8114610ca557600080fd5b50565b600081359050610cb781610c91565b92915050565b600080600080600060a08688031215610cd957610cd8610ad9565b5b6000610ce788828901610b2c565b955050602086013567ffffffffffffffff811115610d0857610d07610ade565b5b610d1488828901610c59565b945050604086013567ffffffffffffffff811115610d3557610d34610ade565b5b610d4188828901610c59565b9350506060610d5288828901610ca8565b9250506080610d6388828901610ca8565b9150509295509295909350565b610d7981610c87565b82525050565b6000602082019050610d946000830184610d70565b92915050565b600060208284031215610db057610daf610ad9565b5b6000610dbe84828501610ca8565b91505092915050565b600081519050919050565b600082825260208201905092915050565b6000819050602082019050919050565b610dfc81610b03565b82525050565b6000610e0e8383610df3565b60208301905092915050565b6000602082019050919050565b6000610e3282610dc7565b610e3c8185610dd2565b9350610e4783610de3565b8060005b83811015610e78578151610e5f8882610e02565b9750610e6a83610e1a565b925050600181019050610e4b565b5085935050505092915050565b600081519050919050565b600082825260208201905092915050565b6000819050602082019050919050565b610eba81610c87565b82525050565b6000610ecc8383610eb1565b60208301905092915050565b6000602082019050919050565b6000610ef082610e85565b610efa8185610e90565b9350610f0583610ea1565b8060005b83811015610f36578151610f1d8882610ec0565b9750610f2883610ed8565b925050600181019050610f09565b5085935050505092915050565b60006040820190508181036000830152610f5d8185610e27565b90508181036020830152610f718184610ee5565b90509392505050565b610f8381610b03565b82525050565b600081519050919050565b600082825260208201905092915050565b60005b83811015610fc3578082015181840152602081019050610fa8565b83811115610fd2576000848401525b50505050565b6000610fe382610f89565b610fed8185610f94565b9350610ffd818560208601610fa5565b61100681610b4b565b840191505092915050565b600060c0820190506110266000830189610f7a565b81810360208301526110388188610fd8565b9050818103604083015261104c8187610fd8565b905061105b6060830186610d70565b6110686080830185610d70565b61107560a0830184610d70565b979650505050505050565b600081519050919050565b600082825260208201905092915050565b6000819050602082019050919050565b600082825260208201905092915050565b60006110c882610f89565b6110d281856110ac565b93506110e2818560208601610fa5565b6110eb81610b4b565b840191505092915050565b600082825260208201905092915050565b600061111282610dc7565b61111c81856110f6565b935061112783610de3565b8060005b8381101561115857815161113f8882610e02565b975061114a83610e1a565b92505060018101905061112b565b5085935050505092915050565b600082825260208201905092915050565b600061118182610e85565b61118b8185611165565b935061119683610ea1565b8060005b838110156111c75781516111ae8882610ec0565b97506111b983610ed8565b92505060018101905061119a565b5085935050505092915050565b6000610100830160008301516111ed6000860182610df3565b506020830151848203602086015261120582826110bd565b9150506040830151848203604086015261121f82826110bd565b91505060608301516112346060860182610eb1565b5060808301516112476080860182610eb1565b5060a083015161125a60a0860182610eb1565b5060c083015184820360c08601526112728282611107565b91505060e083015184820360e086015261128c8282611176565b9150508091505092915050565b60006112a583836111d4565b905092915050565b6000602082019050919050565b60006112c582611080565b6112cf818561108b565b9350836020820285016112e18561109c565b8060005b8581101561131d57848403895281516112fe8582611299565b9450611309836112ad565b925060208a019950506001810190506112e5565b50829750879550505050505092915050565b6000602082019050818103600083015261134981846112ba565b905092915050565b7f54686520646561646c696e652073686f756c642062652061206461746520696e60008201527f2074686520667574757265000000000000000000000000000000000000000000602082015250565b60006113ad602b83610f94565b91506113b882611351565b604082019050919050565b600060208201905081810360008301526113dc816113a0565b9050919050565b7f4e487b7100000000000000000000000000000000000000000000000000000000600052601160045260246000fd5b600061141d82610c87565b91507fffffffffffffffffffffffffffffffffffffffffffffffffffffffffffffffff8214156114505761144f6113e3565b5b600182019050919050565b600061146682610c87565b915061147183610c87565b925082821015611484576114836113e3565b5b828203905092915050565b7f4e487b7100000000000000000000000000000000000000000000000000000000600052602260045260246000fd5b600060028204905060018216806114d657607f821691505b602082108114156114ea576114e961148f565b5b50919050565b600081905092915050565b50565b600061150b6000836114f0565b9150611516826114fb565b600082019050919050565b600061152c826114fe565b9150819050919050565b600061154182610c87565b915061154c83610c87565b9250827fffffffffffffffffffffffffffffffffffffffffffffffffffffffffffffffff03821115611581576115806113e3565b5b828201905092915050565b7f4e487b7100000000000000000000000000000000000000000000000000000000600052603260045260246000fdfea2646970667358221220da150eceec4bd505a858ea5ae6a942bc93b0b9768373e202026f40b0ee0d60a264736f6c63430008090033",
  "linkReferences": {},
  "deployedLinkReferences": {}
}